:020000040801F1
:1000000008A3002095410308ED490108094A0108A9
:10001000254A0108414A01085D4A01080000000024
:10002000000000000000000000000000794A010804
:10003000954A01080000000009420308B14A01087E
:100040000942030809420308094203080942030858
:100050000942030809420308BD4A0108654B01082B
:100060000942030809420308094203080942030838
:1000700009420308AD0701080942030809420308C1
:100080000942030809420308094203080942030818
:100090000942030809420308094203080942030808
:1000A00009420308094203080942030809420308F8
:1000B0001509010809420308094203080942030817
:1000C00009420308094203080942030809420308D8
:1000D00009420308094203080942030809420308C8
:1000E000AD4B01080942030809420308094203080D
:1000F00009420308094203080942030809420308A8
:100100000942030809420308094203080942030897
:100110000942030809420308094203080942030887
:100120000942030809420308094203080942030877
:100130000942030809420308094203080942030867
:1001400009420308094203080942030879350308F4
:100150000942030809420308094203080942030847
:100160000942030809420308094203080942030837
:10017000094203082109010809420308094203084A
:10018000094203080942030810B5054C237833B926
:10019000044810B10448AFF300800121217010BD64
:1001A000B8060020000000002087050808B5064BAF
:1001B0001BB106480649AFF300800648016811B13B
:1001C000054A02B1904708BD0000000020870508DD
:1001D000BC060020B00600200000000080B586B0FC
:1001E00000AFF860B9601346FB804FF00003FB7569
:1001F000FA88FB68C3F83C21FA88FB68C3F8382109
:10020000FB684FF0020283F81121FB88F8684FF079
:100210000001BA680CF0BEFFFB7D184607F1180715
:10022000BD4680BD80B586B000AFF860B9601346AA
:10023000FB804FF00003FB75FB88F8684FF000016E
:10024000BA680CF0A7FFFB7D184607F11807BD46FA
:1002500080BD00BF80B586B000AFF860B9601346BE
:10026000FB804FF00003FB75FA88FB68C3F894230A
:10027000FA88FB68C3F89023FB684FF0030283F809
:100280001121FB88F8684FF00001BA680CF03AFFC2
:10029000FB7D184607F11807BD4680BD80B586B0C6
:1002A00000AFF860B9601346FB804FF00003FB75A8
:1002B000FB88F8684FF00001BA680CF023FFFB7D63
:1002C000184607F11807BD4680BD00BF80B584B051
:1002D00000AF78604FF00003FB737B684FF00402BF
:1002E00083F8112178684FF000014FF000024FF0C1
:1002F00000030CF04FFF786821F04CFEFB7B1846A2
:1003000007F11007BD4680BD80B584B000AF7860AE
:100310004FF00003FB737B684FF0050283F8112157
:1003200078684FF000014FF000024FF000030CF02E
:10033000E9FE786821F02EFEFB7B184607F11007D6
:10034000BD4680BD80B483B000AF78600B46FB70C3
:10035000FA78796813464FEA83039B184FEAC30380
:10036000CB1803F563731B689BB2184607F10C07A3
:10037000BD4680BC704700BF80B483B000AF034669
:10038000FB714FF46143CEF2000397F907204FEA67
:100390005212F97901F01F014FF0010000FA01F14A
:1003A00043F8221007F10C07BD4680BC704700BF20
:1003B00080B483B000AF0346FB714FF46143CEF2CB
:1003C000000397F907204FEA5212F97901F01F0153
:1003D0004FF0010000FA01F102F1200243F822106F
:1003E00007F10C07BD4680BC704700BF80B500AF69
:1003F0004FF400104FF0010103F0F6FD46F28800C3
:10040000C4F202004FF000010AF0B2FD46F288008B
:10041000C4F202000AF0ECFB40F2D463C2F2000323
:100420004FF000021A6040F2D463C2F2000343F6B8
:100430000C42C4F200025A6040F2D463C2F20003DC
:100440004FF000029A6040F2D463C2F200034FF012
:100450004002DA6040F2D463C2F200034FF6FE724B
:100460001A6140F2D463C2F200034FF000025A61F5
:1004700040F2D463C2F200034FF480629A6140F20A
:10048000D463C2F200034FF40062DA6140F2D46335
:10049000C2F200034FF400521A6240F2D463C2F277
:1004A00000034FF480725A6240F2D463C2F2000338
:1004B0004FF400329A6240F2D463C2F200034FF06C
:1004C0000002DA6240F2D463C2F200034FF000028D
:1004D0001A6340F2D463C2F200034FF000025A6381
:1004E00040F2D463C2F200034FF000029A6346F276
:1004F0008800C4F2020040F2D461C2F200010AF0A6
:1005000099FC4FF47050C4F200004FF002014FF01C
:10051000010222F011FC46F24000C4F202004FF04A
:1005200000010AF025FD46F24000C4F202000AF084
:100530005FFB40F21073C2F200034FF080621A605A
:1005400040F21073C2F2000344F20C02C4F2000243
:100550005A6040F21073C2F200034FF000029A603A
:1005600040F21073C2F200034FF00002DA6040F272
:100570001073C2F200034FF6FE721A6140F210735C
:10058000C2F200034FF000025A6140F21073C2F24F
:1005900000034FF480629A6140F21073C2F20003CC
:1005A0004FF40062DA6140F21073C2F200034FF4BC
:1005B00000521A6240F21073C2F200034FF48072CC
:1005C0005A6240F21073C2F200034FF400329A6292
:1005D00040F21073C2F200034FF00002DA6240F200
:1005E0001073C2F200034FF000021A6340F210735E
:1005F000C2F200034FF000025A6340F21073C2F2DD
:1006000000034FF000029A6346F24000C4F2020079
:1006100040F21071C2F200010AF00CFC46F24000F8
:10062000C4F202004FF018014FF001020AF01AFE66
:100630004FF00D00FFF7A0FE4FF040204FF00101FA
:100640004FF0010222F078FB80BD00BF80B584B07E
:1006500000AFF860B9607A6040F24C73C2F20003F8
:10066000FA681A6040F25073C2F20003BA681A6066
:1006700040F25473C2F200037A681A6040F2D46305
:10068000C2F20003FA689A6040F2D463C2F2000337
:100690007A681A6146F28800C4F2020040F2D4611E
:1006A000C2F200010AF0C6FB40F21073C2F200036E
:1006B000BA689A6040F21073C2F200037A681A6155
:1006C00046F24000C4F2020040F21071C2F2000192
:1006D0000AF0B0FB46F28800C4F202004FF00101BC
:1006E0000AF046FC46F24000C4F202004FF001015D
:1006F0000AF03EFC4FF47053C4F200039B8B9BB294
:1007000003F48063002B07D14FF47050C4F2000053
:100710004FF0010122F08AF94FF040239B8B9BB2EE
:1007200003F48063002B05D14FF040204FF001010E
:1007300022F07CF907F11007BD4680BD80B500AFFF
:100740004FF040204FF0000122F070F94FF470504C
:10075000C4F200004FF0000122F068F946F24000B8
:10076000C4F202004FF000010AF002FC46F28800D9
:10077000C4F202004FF000010AF0FAFB4FF04020F3
:100780004FF001014FF0000222F0D6FA4FF00D00B9
:10079000FFF70EFE46F24000C4F202004FF01801CF
:1007A0004FF000020AF05EFD80BD00BF80B500AFD3
:1007B00046F24000C4F202004FF081510AF0E0FC22
:1007C0000346002B53D040F25473C2F200031B685F
:1007D0004FEA53039AB240F25873C2F200031A80F0
:1007E00040F25873C2F200031B881BB24FEA430267
:1007F00040F25073C2F200031B68D3181A4640F24D
:100800005C73C2F200031A6040F25873C2F2000334
:100810001B881BB24FEA430240F24C73C2F2000342
:100820001B68D3181A4640F26073C2F200031A60C4
:1008300040F25C73C2F20003196840F26073C2F2C6
:1008400000031A6840F25873C2F200031B881BB2FF
:10085000084611461A464FF000030AF0B9F846F26E
:100860004000C4F202004FF081510AF0CBFC46F286
:100870004000C4F202004FF00001C1F210010AF082
:100880007FFC0346002B43D040F25473C2F20003B6
:100890001B684FEA53039AB240F25873C2F2000346
:1008A0001A8040F25073C2F200031B681A4640F2ED
:1008B0005C73C2F200031A6040F24C73C2F2000390
:1008C0001B681A4640F26073C2F200031A6040F2DD
:1008D0005C73C2F20003196840F26073C2F2000355
:1008E0001A6840F25873C2F200031B881BB2084614
:1008F00011461A464FF001030AF06AF846F240002A
:10090000C4F202004FF00001C1F210010AF07AFCBB
:1009100080BD00BF80B500AF21F0EAFD80BD00BF03
:1009200080B400AFBD4680BC704700BF80B582B0C8
:1009300002AF40F6C810C0F6050002F07BFE40F2A0
:10094000B413C2F20003009341F29C10C2F2000003
:100950004FF0000141F63042C2F2000240F2601353
:10096000C2F2000330F064FF40F6E010C0F605006C
:1009700002F060FEBD4680BD80B500AF41F29C1024
:10098000C2F2000041F63041C2F2000130F0B6FF81
:1009900080BD00BF80B487B000AF87ED030AB860A8
:1009A0000B46FB71D7ED027AF8EE677AC7ED057A50
:1009B000FB79002B06D144F6B013C2F200034FF0CE
:1009C00000021A6097ED057ADFED0C7AC7EE277A00
:1009D000C7ED057A97ED037AD7ED057AC7EE277A4A
:1009E000FCEEE77A41F6B443C2F20003C3ED007AAD
:1009F00007F11C07BD4680BC704700BF0000804760
:100A000080B487B000AFF860B9601346FB804FF048
:100A100000037B6151E044F6B013C2F200031A6890
:100A200041F6B443C2F200031B68D21844F6B01377
:100A3000C2F200031A6044F6B013C2F200031B684E
:100A40004FEA93133B613B694FEA83534FEA935359
:100A50003B6140F6F813C0F605033A6933F81230EB
:100A60001BB207EE103AF8EEC77AFB68C3ED007AC6
:100A70003B6903F580733B613B694FEA83534FEA5F
:100A800093533B6140F6F813C0F605033A6933F817
:100A900012301BB207EE103AF8EEC77ABB68C3ED0E
:100AA000007AFB6803F10403FB60BB6803F10403F5
:100AB000BB607B6903F101037B61FA887B699A4221
:100AC000A9D807F11C07BD4680BC704780B485B02B
:100AD00000AF78604FF00003BB600EE04FF0000302
:100AE000FB6003E0FB6803F10103FB60FB680E2B76
:100AF000F8D9BB6803F10103BB60BA687B689A420E
:100B0000ECD307F11407BD4680BC704780B582B0B6
:100B100000AF4FF004033B604FF001033B714FF017
:100B20000003BB714FF00003FB714FF000037B71BA
:100B30003B464FF44060C4F20200194604F0F4FC56
:100B40004FF44063C4F202034FF004025A8307F1EA
:100B50000807BD4680BD00BF80B588B000AF4FF428
:100B600080404FF0010103F0BDFA4FF002033B77E4
:100B70004FF00003BB774FF003037B774FF4005334
:100B8000BB6107F118034FF48060C4F202001946FC
:100B900004F0CAFC4FF00803BB6107F118034FF4DF
:100BA0000060C4F20200194604F0BEFC4FF00403DA
:100BB000BB6107F118034FF40060C4F2020019464C
:100BC00004F0B2FC4FF48060C4F202004FF00D015B
:100BD0004FF0050204F036FE4FF40060C4F202004C
:100BE0004FF002014FF0050204F02CFE4FF40060BC
:100BF000C4F202004FF003014FF0050204F022FEA0
:100C00004FF46050C4F2000021F00EFD4FF00003DD
:100C1000BB804FF000033B814FF002037B814FF01C
:100C20000103BB814FF40073FB814FF008033B824B
:100C30004FF000037B824FF48273FB8007F10403C3
:100C40004FF46050C4F20000194621F031FD4FF41A
:100C50006050C4F200004FF0010121F0C7FE4FF0D8
:100C600001033B774FF00003BB774FF002037B7724
:100C70004FF48053BB6107F118034FF48050C4F266
:100C80000200194604F050FC4FF00803BB6107F165
:100C900018034FF44060C4F20200194604F044FC0B
:100CA0004FF48050C4F202004FF4805104F076FDFE
:100CB00007F12007BD4680BD80B582B000AF4FF47C
:100CC0006050C4F200004FF0000121F08FFE4FF49D
:100CD0006050C4F2000021F0A7FC4FF000033B710C
:100CE0004FF000037B714FF400533B603B464FF4E1
:100CF0008060C4F20200194604F016FC4FF00803AD
:100D00003B603B464FF40060C4F20200194604F019
:100D10000BFC4FF004033B603B464FF40060C4F211
:100D20000200194604F000FC4FF480533B603B4640
:100D30004FF48050C4F20200194604F0F5FB07F1AD
:100D40000807BD4680BD00BF80B582B000AF4CF63D
:100D5000B3733B604FF002033B714FF003037B71B1
:100D60004FF00003BB714FF00003FB713B464FF4A3
:100D70004060C4F20200194604F0D6FB4FF4406014
:100D8000C4F202004FF000014FF00C0204F05AFDD3
:100D90004FF44060C4F202004FF001014FF00C022A
:100DA00004F050FD4FF44060C4F202004FF0040123
:100DB0004FF00C0204F046FD4FF44060C4F2020014
:100DC0004FF005014FF00C0204F03CFD4FF4406081
:100DD000C4F202004FF007014FF00C0204F032FDA4
:100DE0004FF44060C4F202004FF008014FF00C02D3
:100DF00004F028FD4FF44060C4F202004FF00901F6
:100E00004FF00C0204F01EFD4FF44060C4F20200EB
:100E10004FF00A014FF00C0204F014FD4FF4406053
:100E2000C4F202004FF00B014FF00C0204F00AFD77
:100E30004FF44060C4F202004FF00E014FF00C027C
:100E400004F000FD4FF44060C4F202004FF00F01C7
:100E50004FF00C0204F0F6FC4FF680733B604FF04D
:100E600002033B714FF003037B714FF00003BB7132
:100E70004FF00003FB713B464FF48050C4F2020078
:100E8000194604F051FB4FF48050C4F202004FF0B9
:100E900007014FF00C0204F0D5FC4FF48050C4F26F
:100EA00002004FF008014FF00C0204F0CBFC4FF4AD
:100EB0008050C4F202004FF009014FF00C0204F020
:100EC000C1FC4FF48050C4F202004FF00A014FF011
:100ED0000C0204F0B7FC4FF48050C4F202004FF053
:100EE0000B014FF00C0204F0ADFC4FF48050C4F243
:100EF00002004FF00C014FF00C0204F0A3FC4FF481
:100F00008050C4F202004FF00D014FF00C0204F0CB
:100F100099FC4FF48050C4F202004FF00E014FF0E4
:100F20000C0204F08FFC4FF48050C4F202004FF02A
:100F30000F014FF00C0204F085FC4FF008033B60FA
:100F40004FF001033B714FF00003BB714FF0020300
:100F50007B713B464FF44060C4F20200194604F036
:100F6000E3FA07F10807BD4680BD00BF80B500AFBA
:100F70004FF44060C4F202004FF0080104F00EFC90
:100F80004CF25030FFF7A2FD4FF44060C4F2020073
:100F90004FF0080104F010FC4CF25030FFF796FDC2
:100FA0004FF44060C4F202004FF0080104F0F6FB79
:100FB00048F2A060C0F20100FFF788FD80BD00BFCD
:100FC00080B596B000AF4FF001004FF0010103F083
:100FD0005FF84FF003033B604FF000037B604FF07E
:100FE0000903BB604FF00003FB604FF000033B615F
:100FF0004FF000037B614FF00003BB614FF0000333
:10100000FB614FF000033B624FF000037B624FF047
:101010001003BB624FF00003FB624FF000033B6321
:101020004FF000037B634FF00003BB634FF00003FE
:10103000FB634FF480533B644FF000037B644FF03D
:101040000003BB644FF00003FB643B463B653B463B
:101050007B6507F11C0318460AF0FCF94FF000000D
:101060004FF001010AF022FB07F15807BD4680BD91
:1010700080B582B000AF0346FB7100BF4FF46050F3
:10108000C4F200004FF0020121F0B0FE0346002B35
:10109000F4D0FB799BB24FF46050C4F200001946C3
:1010A00021F0E2FD00BF4FF46050C4F200004FF0A9
:1010B000010121F09BFE0346002BF4D04FF4605059
:1010C000C4F2000021F0C2FD07F10807BD4680BD53
:1010D00080B582B000AF4FF00003FB704FF4805337
:1010E0007B600EE07B68002B14BF00230123DBB282
:1010F0007A6802F1FF327A60002B02D04FF0FF03D2
:1011000039E04FF46050C4F200004FF0020121F0CA
:101110006DFE0346002BE5D0FB789BB24FF4605088
:10112000C4F20000194621F09FFD4FF480537B600C
:101130000EE07B68002B14BF00230123DBB27A682A
:1011400002F1FF327A60002B02D04FF0FF0312E071
:101150004FF46050C4F200004FF0010121F046FE50
:101160000346002BE5D04FF46050C4F2000021F09C
:101170006DFD0346DBB2184607F10807BD4680BD8A
:1011800080B582B000AF0346FB714FF48050C4F2CB
:1011900002004FF4805104F00FFB4FF07000FFF796
:1011A00067FF4FF00000FFF763FFFB791846FFF77A
:1011B0005FFF4FF48050C4F202004FF4805104F0FE
:1011C000EDFA07F10807BD4680BD00BF80B582B0CB
:1011D00000AF0346FB804FF48050C4F202004FF48E
:1011E000805104F0E9FA4FF07200FFF741FFFB88ED
:1011F0004FEA13239BB2DBB21846FFF739FFFB8897
:10120000DBB21846FFF734FF4FF48050C4F20200FF
:101210004FF4805104F0C2FA07F10807BD4680BDC3
:1012200080B500AF4FF07200FFF722FF80BD00BF16
:1012300080B582B000AF0346FB8044F6B013C2F223
:10124000000393F8543EDBB2002B0DD0FB884FEA2D
:1012500013239BB2DBB21846FFF70AFFFB88DBB211
:101260001846FFF705FF05E04FF00003C6F2020342
:10127000FA881A8007F10807BD4680BD80B582B0A4
:1012800000AF4FF48050C4F202004FF4805104F0DC
:1012900093FA4FF07300FFF7EBFEFFF719FFFFF72C
:1012A00017FF0346FB71FB79BB80BB884FEA032322
:1012B000BB80FFF70DFF0346FB70FB789AB2BB883B
:1012C0001343BB804FF48050C4F202004FF48051AE
:1012D00004F064FABB88184607F10807BD4680BDD4
:1012E00080B582B000AF02460B46FA80BB8044F660
:1012F000B013C2F2000393F8543EDBB2002B09D0C6
:10130000FB88DBB21846FFF73BFFBB881846FFF7A8
:101310005DFF09E04FF0C043FA881A804FF00003E8
:10132000C6F20203BA881A8007F10807BD4680BDDD
:1013300080B582B000AF0346FB8044F6B013C2F222
:10134000000393F8543EDBB2002B08D0FB88DBB2DD
:101350001846FFF715FFFFF791FF034609E04FF02E
:10136000C043FA881A804FF00003C6F202031B88BC
:101370009BB2184607F10807BD4680BD80B582B014
:1013800000AF02460B46FA80BB80BB884FF02000BE
:101390001946FFF7A5FFFB884FF021001946FFF71C
:1013A0009FFF07F10807BD4680BD00BF80B584B030
:1013B00000AF0346FB804FF000004FF00001FFF745
:1013C000DDFF44F6B013C2F2000393F8543EDBB2E3
:1013D000002B27D04FF02200FFF7D2FE4FF48053AE
:1013E000C4F202034FF480525A83FFF719FF4FF003
:1013F0000003FB6007E0FB881846FFF719FFFB6856
:1014000003F10103FB60FA6848F6FF73C0F20103C1
:101410009A42F0D94FF48053C4F202034FF4805241
:101420001A8319E04FF0C0434FF022021A804FF0A8
:101430000003FB6009E04FF00003C6F20203FA88E4
:101440001A80FB6803F10103FB60FA6848F6FF733A
:10145000C0F201039A42EED907F11007BD4680BDE4
:1014600080B582B000AF13460246FA800A46BA80C1
:101470007B80FA8840F23F139A4211D8BA8840F232
:101480003F139A420CD8FA88BB8810461946FFF7DA
:1014900075FF7B884FF022001946FFF721FF00E01F
:1014A00000BF07F10807BD4680BD00BF80B500AF93
:1014B00044F6B013C2F2000393F8543EDBB2002BA3
:1014C0000ED04FF02200FFF75BFE4FF48050C4F2C5
:1014D00002004FF4805104F06FF9FFF7A1FE04E021
:1014E0004FF0C0434FF022021A8080BD80B584B017
:1014F00000AFF880B9807A807B704FF00003FB600A
:10150000FA88BB8810461946FFF738FF7B78012B15
:1015100023D1FFF7CBFF4FF00003FB6007E03B8BCD
:101520001846FFF785FEFB6803F10103FB607A882C
:10153000FB689A42F3D844F6B013C2F2000393F862
:10154000543EDBB2002B35D04FF48050C4F2020081
:101550004FF4805104F022F92CE04FF00003FB60BF
:1015600024E0FFF7A3FF3B8B1846FFF761FE44F62C
:10157000B013C2F2000393F8543EDBB2002B07D045
:101580004FF48050C4F202004FF4805104F006F989
:10159000FB8803F10103FB80FA88BB8810461946DB
:1015A000FFF7ECFEFB6803F10103FB607A88FB6840
:1015B0009A42D6D807F11007BD4680BD80B586B0E7
:1015C00000AFF880B9807A803B804FF000037B61E8
:1015D0004FF000033B613B88FB814FF000037B61D0
:1015E00056E0FA88BB8810461946FFF7C7FEFFF79A
:1015F0005DFFFB894FEAD3039BB24FEAC3239AB244
:10160000FB894FEA93039BB24FEA43139BB2134308
:101610009AB2FB894FEAD3039BB29BB213439BB2AE
:101620009BB21846FFF704FE44F6B013C2F2000363
:1016300093F8543EDBB2002B07D04FF48050C4F235
:1016400002004FF4805104F0A9F83B6903F1010353
:101650003B613B69082B13D17B884FEA53039BB254
:101660001A467B699A4204D9FB8903F10403FB8182
:1016700003E0FB89A3F10403FB814FF000033B610E
:10168000FB8803F10103FB807B6903F101037B61AC
:101690007A887B699A42A4D807F11807BD4680BDB5
:1016A00080B584B002AFF880B9807A803B80F98839
:1016B000BA883B88388A0090084611461A464FF08F
:1016C0000003FFF713FFF988BA887B88388A0090F7
:1016D000084611461A464FF00103FFF707FFFA8844
:1016E0003B88D31899B27B8803F101039BB2BA8877
:1016F000388A0090084611461A464FF00103FFF75A
:10170000F5FEBA887B88D3189AB2F9883B88388A64
:101710000090084611461A464FF00003FFF7E6FE18
:1017200007F10807BD4680BD80B584B002AFF880E0
:10173000B9807A803B80F988BA883B88388A0090E3
:10174000084611461A464FF00003FFF7CFFEF9880E
:10175000BA887B88388A0090084611461A464FF0AE
:101760000103FFF7C3FEFA883B88D31899B2BA8801
:101770007B88388A0090084611461A464FF00103CC
:10178000FFF7B4FE07F10807BD4680BD80B584B001
:1017900002AFF880B9807A803B800FE0F988BA8880
:1017A0007B88388A0090084611461A464FF001039C
:1017B000FFF79CFEFB8803F10103FB803B88002BB5
:1017C0000CBF00230123DBB23A8802F1FF323A80DA
:1017D000002BE3D107F10807BD4680BD80B588B076
:1017E00000AFF880B980FA703B80FB88FB82FB6A0F
:1017F0009B887B75FB6A1A68FB78A3F120034FEA8C
:101800004303F96AC98801FB03F3D3183B61FA8AE1
:10181000BB8810461946FFF7B1FD4FF00003FB618E
:101820007BE04FF00003BB6161E0FFF73FFEFB6927
:101830004FEA43033A69D3181A88797D4AF6AB23F5
:10184000CAF6AA23A3FB01034FEAD303DBB24FEA94
:10185000C3034FF0800101FA03F1BB6941FA03F3BE
:101860009BB213409BB2FB81FB694FEA43033A6989
:10187000D3181A88BB694FF0010101FA03F39BB238
:1018800013409BB2BB81FB89002B02D17B7D0C2BCB
:1018900005D9BB89002B07D17B7D0C2B04D93B8D4F
:1018A0001846FFF7C5FC03E03B881846FFF7C0FC6D
:1018B00044F6B013C2F2000393F8543EDBB2002B9F
:1018C00007D04FF48050C4F202004FF4805103F06F
:1018D00065FFFB8A03F10103FB82FA8ABB8810468D
:1018E0001946FFF74BFDBB6903F10103BB61FB6ABE
:1018F0009B881A46BB699A4297D8BB8803F10103BB
:10190000BB80FB88FB82FA8ABB8810461946FFF72A
:1019100035FDFB6903F10103FB61FB6ADB881A46B5
:10192000FB699A423FF67DAF07F12007BD4680BDB7
:1019300090B589B002AFBA600246FA810A46BA8110
:10194000FB8097F82C3003F1FF33032B22D801A240
:1019500052F823F065190108711901087D19010871
:101960008919010840F6A013C0F605037B6117E052
:1019700040F6A813C0F605037B6111E040F6B013F2
:10198000C0F605037B610BE040F6C013C0F605030B
:101990007B6105E040F6B813C0F605037B6100BF2C
:1019A000BB681B78FB74BB6803F10103BB60F8895B
:1019B000B989FA7CFB883C8D00947C690194FFF71F
:1019C0000DFFFA897B699B88C3F5A0739A4216DAEA
:1019D0007B699A88FB89D318FB8197F82C30042BFC
:1019E00023D1BB681B78392B04D9FB8903F1FF3362
:1019F000FB811AE0FB89A3F10203FB8115E0BA89A0
:101A00007B69DB88C3F5A0739A4208DA4FF00003C4
:101A1000FB817B69DA88BB89D318BB8105E04FF075
:101A20000003FB814FF00003BB81BB681B78002BD8
:101A3000B6D107F11C07BD4690BD00BF80B588B088
:101A400000AF786013460A467A803B804FF000036F
:101A5000FB603B88002B03D04FF08003BB8202E089
:101A60004FF00003BB82BB8A03F13E037B8367E137
:101A70007B681B883B837B6803F102037B603B8BA5
:101A8000372B02D94FF037033B833B8BC3F1D10394
:101A9000FB823B8B7B813B8B002B00F04C817B8856
:101AA000002B30D14FF00003BB8329E0BB8B44F601
:101AB000B012C2F2000203F5E3634FEA4303D31806
:101AC0009B889BB27A8B9A4216D1BB8B44F6B0129C
:101AD000C2F2000203F5E3634FEA4303D3189B8885
:101AE0007B8341F6B843C2F20003D3F8B8307B825F
:101AF0004FF00103FB6006E0BB8B03F10103BB83E6
:101B0000BB8B062BD2D944F6B013C2F2000393F874
:101B1000543EDBB2002B00F098804FF48053C4F2A7
:101B200002034FF480525A834FF07000FFF7A0FA7F
:101B30004FF00000FFF79CFA4FF02000FFF798FAF3
:101B40004FF48053C4F202034FF480521A834FF4CF
:101B50008053C4F202034FF480525A834FF0720054
:101B6000FFF786FAFB8A4FEA13239BB2DBB21846D3
:101B7000FFF77EFAFB8ADBB21846FFF779FA4FF4DB
:101B80008053C4F202034FF480521A834FF48053FF
:101B9000C4F202034FF480525A834FF07000FFF7F3
:101BA00067FA4FF00000FFF763FA4FF02100FFF7EC
:101BB0005FFA4FF48053C4F202034FF480521A8349
:101BC0004FF48053C4F202034FF480525A834FF013
:101BD0007200FFF74DFA7B8B4FEA13239BB2DBB207
:101BE0001846FFF745FA7B8BDBB21846FFF740FA41
:101BF0004FF48053C4F202034FF480521A834FF41F
:101C00008053C4F202034FF480525A834FF07000A5
:101C1000FFF72EFA4FF00000FFF72AFA4FF02200EC
:101C2000FFF726FA4FF48053C4F202034FF48052B8
:101C30001A834FF48053C4F202034FF480525A8344
:101C40004FF07200FFF714FA07E07A8BFB8A104618
:101C50001946FFF793FBFFF729FC4FF00003FB83C6
:101C60004EE0FB68002B26D17B887B827B88002B93
:101C700021D14FF00003BB831AE0BB8B44F6B012B6
:101C8000C2F2000203F5E4634FEA4303D3185B8812
:101C90009BB2FA8A9A4207D141F6B843C2F20003D6
:101CA000D3F8B8307B8206E0BB8B03F10103BB8322
:101CB000BB8B022BE1D944F6B013C2F2000393F8B8
:101CC000543EDBB2002B0DD07B8A4FEA13239BB22C
:101CD000DBB21846FFF7CCF97B8ADBB21846FFF778
:101CE000C7F905E04FF00003C6F202037A8A1A80B2
:101CF000FB8A03F10103FB82FB8B03F10103FB83EE
:101D0000FA8B7B899A42ACD344F6B013C2F200033B
:101D100093F8543EDBB2002B06D04FF48053C4F24C
:101D200002034FF480521A83FB68002B04D04FF05B
:101D30000003FB6000E000BF7B8B03F101037B83AA
:101D40007A8BBB8A03F1BC039A42FFF691AE07F18E
:101D50002007BD4680BD00BF80B58CB000AFF860E5
:101D6000B960FA80BB804FF00003BB613B8F002B52
:101D700003D04FF07F033B8402E04FF001033B842C
:101D80003B8C03F13E037B85CBE2FB681B883B85E4
:101D9000FB6803F10203FB60BB681B88FB84BB6824
:101DA00003F10203BB603B8D3F2B02D94FF03F0391
:101DB0003B85FB8C3F2B02D94FF03F03FB843B8DCF
:101DC000C3F1D103BB843B8DFB82FB8CC3F1D103F8
:101DD0007B84FB8CBB823A8DFB8C9A4240F24B8118
:101DE000FB88002B30D14FF00003BB8529E0BB8D71
:101DF00044F6B012C2F2000203F5E3634FEA430374
:101E0000D3189B889BB27A8D9A4216D1BB8D44F62B
:101E1000B012C2F2000203F5E3634FEA4303D318A2
:101E20009B887B8541F6B843C2F20003D3F8B830F3
:101E3000FB834FF00103BB6106E0BB8D03F101039F
:101E4000BB85BB8D062BD2D944F6B013C2F200037A
:101E500093F8543EDBB2002B00F098804FF480538F
:101E6000C4F202034FF480525A834FF07000FFF720
:101E7000FFF84FF00000FFF7FBF84FF02000FFF7EE
:101E8000F7F84FF48053C4F202034FF480521A83E0
:101E90004FF48053C4F202034FF480525A834FF040
:101EA0007200FFF7E5F8BB8C4FEA13239BB2DBB25D
:101EB0001846FFF7DDF8BB8CDBB21846FFF7D8F801
:101EC0004FF48053C4F202034FF480521A834FF44C
:101ED0008053C4F202034FF480525A834FF07000D3
:101EE000FFF7C6F84FF00000FFF7C2F84FF02100EF
:101EF000FFF7BEF84FF48053C4F202034FF4805250
:101F00001A834FF48053C4F202034FF480525A8371
:101F10004FF07200FFF7ACF87B8D4FEA13239BB2B2
:101F2000DBB21846FFF7A4F87B8DDBB21846FFF74B
:101F30009FF84FF48053C4F202034FF480521A8387
:101F40004FF48053C4F202034FF480525A834FF08F
:101F50007000FFF78DF84FF00000FFF789F84FF0A1
:101F60002200FFF785F84FF48053C4F202034FF4C8
:101F700080521A834FF48053C4F202034FF480520C
:101F80005A834FF07200FFF773F807E07A8DBB8C2D
:101F900010461946FFF7F2F9FFF788FAFB8CFB852C
:101FA0004EE0BB69002B26D1FB88FB83FB88002B0E
:101FB00021D14FF00003BB851AE0BB8D44F6B0126F
:101FC000C2F2000203F5E4634FEA4303D3185B88CF
:101FD0009BB2BA8C9A4207D141F6B843C2F20003D1
:101FE000D3F8B830FB8306E0BB8D03F10103BB855A
:101FF000BB8D022BE1D944F6B013C2F2000393F873
:10200000543EDBB2002B0DD0FB8B4FEA13239BB267
:10201000DBB21846FFF72CF8FB8BDBB21846FFF754
:1020200027F805E04FF00003C6F20203FA8B1A808E
:10203000BB8C03F10103BB84FB8D03F10103FB8522
:10204000FA8DFB8A9A42ACD344F6B013C2F2000375
:1020500093F8543EDBB2002B06D04FF48053C4F209
:1020600002034FF480521A83BB69002B04D04FF057
:102070000003BB6100E000BFFB8C002B00F04C8133
:10208000BB88002B30D14FF00003BB8529E0BB8D0E
:1020900044F6B012C2F2000203F5E3634FEA4303D1
:1020A000D3189B889BB27A8D9A4216D1BB8D44F689
:1020B000B012C2F2000203F5E3634FEA4303D31800
:1020C0009B887B8541F6B843C2F20003D3F8B83051
:1020D000FB834FF00103BB6106E0BB8D03F10103FD
:1020E000BB85BB8D062BD2D944F6B013C2F20003D8
:1020F00093F8543EDBB2002B00F098804FF48053ED
:10210000C4F202034FF480525A834FF07000FEF77E
:10211000AFFF4FF00000FEF7ABFF4FF02000FEF7DF
:10212000A7FF4FF48053C4F202034FF480521A8386
:102130004FF48053C4F202034FF480525A834FF09D
:102140007200FEF795FF7B8C4FEA13239BB2DBB244
:102150001846FEF78DFF7B8CDBB21846FEF788FF32
:102160004FF48053C4F202034FF480521A834FF4A9
:102170008053C4F202034FF480525A834FF0700030
:10218000FEF776FF4FF00000FEF772FF4FF02100E0
:10219000FEF76EFF4FF48053C4F202034FF48052F7
:1021A0001A834FF48053C4F202034FF480525A83CF
:1021B0004FF07200FEF75CFF7B8D4FEA13239BB25A
:1021C000DBB21846FEF754FF7B8DDBB21846FEF7F4
:1021D0004FFF4FF48053C4F202034FF480521A832E
:1021E0004FF48053C4F202034FF480525A834FF0ED
:1021F0007000FEF73DFF4FF00000FEF739FF4FF093
:102200002200FEF735FF4FF48053C4F202034FF46F
:1022100080521A834FF48053C4F202034FF4805269
:102220005A834FF07200FEF723FF07E07A8D7B8C14
:1022300010461946FFF7A2F8FFF738F94FF00003F0
:10224000FB854EE0BB69002B26D1BB88FB83BB8896
:10225000002B21D14FF00003BB851AE0BB8D44F663
:10226000B012C2F2000203F5E4634FEA4303D3184D
:102270005B889BB27A8C9A4207D141F6B843C2F28E
:102280000003D3F8B830FB8306E0BB8D03F10103F4
:10229000BB85BB8D022BE1D944F6B013C2F200031B
:1022A00093F8543EDBB2002B0DD0FB8B4FEA132387
:1022B0009BB2DBB21846FEF7DBFEFB8BDBB21846A7
:1022C000FEF7D6FE05E04FF00003C6F20203FA8BDC
:1022D0001A807B8C03F101037B84FB8D03F10103E6
:1022E000FB85FA8DBB8A9A42ACD344F6B013C2F296
:1022F000000393F8543EDBB2002B06D04FF480531A
:10230000C4F202034FF480521A83BB69002B04D03D
:102310004FF00003BB6100E000BF7B8D03F10103C0
:102320007B857A8D3B8C03F1BC039A42FFF62DAD81
:1023300007F13007BD4680BD80B582B000AF4FF0D9
:102340000000FEF7F5FF0346FB80FB8841F2F81022
:10235000C0F60500194601F06DF9FB88002B02D18B
:102360004FF00103E6E3FA8849F220339A4240F045
:10237000668141F20C20C0F6050001F05BF94FF0D8
:10238000E5004FF40041FEF7ABFF4FF000004FF0C7
:102390000101FEF7A5FF4FF001004FF48071FEF739
:1023A0009FFF4FF002004FF4E061FEF799FF4FF0FE
:1023B000030041F23001FEF793FF4FF004004FF0AD
:1023C0000001FEF78DFF4FF0080040F20221FEF7FA
:1023D00087FF4FF009004FF00001FEF781FF4FF03B
:1023E0000A004FF00001FEF77BFF4FF00C004FF0AA
:1023F0000001FEF775FF4FF00D004FF00001FEF7F2
:102400006FFF4FF00F004FF00001FEF769FF4FF034
:1024100010004FF00001FEF763FF4FF011004FF086
:102420000001FEF75DFF4FF012004FF00001FEF7D4
:1024300057FF4FF013004FF00001FEF751FF49F234
:10244000E030C0F20400FEF741FB4FF0100041F213
:10245000B071FEF745FF4FF0110040F23711FEF763
:102460003FFF48F2A060C0F20100FEF72FFB4FF0E3
:10247000120040F23911FEF733FF48F2A060C0F2BB
:102480000100FEF723FB4FF013004FF4E851FEF775
:1024900027FF4FF029004FF01301FEF721FF48F20C
:1024A000A060C0F20100FEF711FB4FF020004FF0DA
:1024B0000001FEF715FF4FF021004FF00001FEF77D
:1024C0000FFF4FF030004FF00701FEF709FF4FF00C
:1024D00031004FF00701FEF703FF4FF032004FF0DD
:1024E0000701FEF7FDFE4FF035004FF00701FEF744
:1024F000F7FE4FF036004FF00701FEF7F1FE4FF008
:1025000037004FF4E061FEF7EBFE4FF038004FF478
:10251000E061FEF7E5FE4FF039004FF4E061FEF7B1
:10252000DFFE4FF03C004FF4E061FEF7D9FE4FF0C4
:102530003D004FF4F851FEF7D3FE4FF050004FF03E
:102540000001FEF7CDFE4FF051004FF0EF01FEF716
:10255000C7FE4FF052004FF00001FEF7C1FE4FF0F2
:10256000530040F23F11FEF7BBFE4FF060004FF406
:102570002741FEF7B5FE4FF061004FF00101FEF775
:10258000AFFE4FF06A004FF00001FEF7A9FE4FF0DA
:1025900080004FF00001FEF7A3FE4FF081004FF0E6
:1025A0000001FEF79DFE4FF082004FF00001FEF7A4
:1025B00097FE4FF083004FF00001FEF791FE4FF0C1
:1025C00084004FF00001FEF78BFE4FF085004FF0C6
:1025D0000001FEF785FE4FF090004FF01001FEF76E
:1025E0007FFE4FF092004FF00001FEF779FE4FF0B2
:1025F00093004FF00301FEF773FE4FF095004FF488
:102600008871FEF76DFE4FF097004FF00001FEF766
:1026100067FE4FF098004FF00001FEF761FE4FF0AB
:10262000030041F23001FEF75BFE4FF0070040F27D
:102630007311FEF755FE4CF25030FEF747FAFA8858
:1026400045F208439A4240F0EC8041F22420C0F663
:10265000050000F0EFFF4FF001004FF00001FEF722
:102660003FFE4FF002004FF4E061FEF739FE4FF0FD
:10267000030041F23001FEF733FE4FF004004FF04B
:102680000001FEF72DFE4FF0080040F20721FEF793
:1026900027FE4FF009004FF00001FEF721FE4FF03A
:1026A0000A004FF00001FEF71BFE4FF00C004FF048
:1026B0000001FEF715FE4FF00D004FF00001FEF790
:1026C0000FFE4FF00F004FF00001FEF709FE4CF235
:1026D0005030FEF7FBF94FF0070040F20111FEF712
:1026E000FFFD4CF25030FEF7F1F94FF0100041F2CF
:1026F000B061FEF7F5FD4FF011004FF00101FEF75C
:10270000EFFD4FF017004FF00101FEF7E9FD4FF02C
:1027100012004FF49C71FEF7E3FD4FF013004FF4ED
:102720000061FEF7DDFD4FF029004FF00901FEF7D3
:10273000D7FD4FF02A004FF00901FEF7D1FD4FF011
:10274000A4004FF00001FEF7CBFD4FF050004FF01A
:102750000001FEF7C5FD4FF051004FF0EF01FEF70D
:10276000BFFD4FF052004FF00001FEF7B9FD4FF0F2
:10277000530040F23F11FEF7B3FD4FF060004FF4FD
:102780001C51FEF7ADFD4FF061004FF00301FEF765
:10279000A7FD4FF06A004FF00001FEF7A1FD4FF0DA
:1027A00080004FF00001FEF79BFD4FF081004FF0DD
:1027B0000001FEF795FD4FF082004FF00001FEF79B
:1027C0008FFD4FF083004FF00001FEF789FD4FF0C1
:1027D00084004FF00001FEF783FD4FF085004FF0BD
:1027E0000001FEF77DFD4FF090004FF01301FEF762
:1027F00077FD4FF092004FF00001FEF771FD4FF0B2
:1028000093004FF00301FEF76BFD4FF095004FF47E
:102810008871FEF765FD4FF0070040F27311FEF777
:102820005FFDFA8849F225339A4205D0FA8849F2C9
:1028300028339A4240F07A8141F23C20C0F60500EC
:1028400000F0F8FE4FF0E7004FF01001FEF748FDF2
:102850004FF000004FF00101FEF742FD4FF0010084
:102860004FF00001FEF73CFD4FF002004FF4E06135
:10287000FEF736FD4FF0030041F23001FEF730FD68
:102880004FF004004FF00001FEF72AFD4FF0080062
:1028900040F20721FEF724FD4FF009004FF0000140
:1028A000FEF71EFD4FF00A004FF00001FEF718FD85
:1028B0004FF00C004FF00101FEF712FD4FF00D003C
:1028C0004FF00001FEF70CFD4FF00F004FF000013C
:1028D000FEF706FD4FF010004FF00001FEF700FD7F
:1028E0004FF011004FF00701FEF7FAFC4FF0120015
:1028F0004FF00001FEF7F4FC4FF013004FF0000121
:10290000FEF7EEFC48F2A060C0F20100FEF7DEF830
:102910004FF0100041F29051FEF7E2FC4FF0110031
:1029200040F22721FEF7DCFC48F2A060C0F2010073
:10293000FEF7CCF84FF012004FF09C01FEF7D0FCF0
:1029400048F2A060C0F20100FEF7C0F84FF013009B
:102950004FF4C851FEF7C4FC4FF029004FF023019B
:10296000FEF7BEFC4FF02B004FF00E01FEF7B8FC57
:1029700048F2A060C0F20100FEF7A8F84FF0200076
:102980004FF00001FEF7ACFC4FF021004FF00001CA
:10299000FEF7A6FC48F2A060C0F20100FEF796F830
:1029A0004FF030004FF00701FEF79AFC4FF0310076
:1029B00040F20771FEF794FC4FF032004FF0060131
:1029C000FEF78EFC4FF0350040F20471FEF788FCF4
:1029D0004FF0360041F60471FEF782FC4FF03700ED
:1029E0004FF00401FEF77CFC4FF038004FF000017F
:1029F000FEF776FC4FF0390040F20671FEF770FCEE
:102A00004FF03C0040F20171FEF76AFC4FF03D00D0
:102A10004FF00F01FEF764FC48F2A060C0F2010025
:102A2000FEF754F84FF050004FF00001FEF758FC4D
:102A30004FF051004FF0EF01FEF752FC4FF0520003
:102A40004FF00001FEF74CFC4FF0530040F23F11F5
:102A5000FEF746FC4FF060004FF42741FEF740FCC4
:102A60004FF061004FF00101FEF73AFC4FF06A00B1
:102A70004FF00001FEF734FC4FF080004FF00001F2
:102A8000FEF72EFC4FF081004FF00001FEF728FC0E
:102A90004FF082004FF00001FEF722FC4FF0830060
:102AA0004FF00001FEF71CFC4FF084004FF00001D6
:102AB000FEF716FC4FF085004FF00001FEF710FC0A
:102AC0004FF090004FF01001FEF70AFC4FF092001B
:102AD0004FF00001FEF704FC4FF093004FF00301AC
:102AE000FEF7FEFB4FF095004FF48871FEF7F8FB00
:102AF0004FF097004FF00001FEF7F2FB4FF0980007
:102B00004FF00001FEF7ECFB4FF0070040F23311ED
:102B1000FEF7E6FB4FF020004FF00001FEF7E0FB70
:102B20004FF021004FF00001FEF7DAFB00F008F84B
:102B30004FF00003184607F10807BD4680BD00BFEF
:102B400080B400AFBD4680BC704700BF80B500AF09
:102B5000FDF7DCFF44F6B013C2F200034FF00102B0
:102B600083F8542EFDF7F8FFFEF700FAFFF7E4FBB9
:102B70000346002B14D0FEF79FF844F6B013C2F2C0
:102B800000034FF0000283F8542EFEF7DDF8FEF745
:102B900017FAFEF7EBF9FFF7CFFB4FF0000300E069
:102BA00000BF184680BD00BFB0B59EB002AF7860D0
:102BB0004FF00000FEF7FAFB07F1080241F2542340
:102BC000C0F6050314461D460FCD0FC495E803005B
:102BD000206004F10404217007F108034FF00002A3
:102BE00000924FF0000201924FF046004FF03C017E
:102BF0001A464FF6FF73FEF79BFE07F1080241F2FB
:102C00006C23C0F6050314461D460FCD0FC495E88E
:102C1000070003C4227007F108034FF0000200927E
:102C20004FF0000201924FF03C004FF050011A4665
:102C30004FF6FF73FEF77CFE07F108034FF000022A
:102C400000924FF0D9020192184641F28821C0F655
:102C500005014FF000024FF0000300F001FD07F105
:102C600008034FF0000200924FF0000201924FF073
:102C70006E004FF064011A464FF6FF73FEF758FEE0
:102C800007F1080241F29823C0F6050314461D46D9
:102C90000FCD0FC495E8070084E8070007F108038B
:102CA0004FF0000200924FF0000201924FF0360008
:102CB0004FF0C3011A4648F21043FEF739FE07F100
:102CC000080241F2B423C0F6050314461D460FCD99
:102CD0000FC495E80F0007C4238004F102044FEAF3
:102CE0001343237007F108034FF0000200924FF0E6
:102CF000000201924FF02A004FF0D2011A4648F22A
:102D00001043FEF715FE07F1080241F2D423C0F686
:102D1000050314461D460FCD0FC495E8070003C4F4
:102D2000228007F108034FF0000200924FF00002EA
:102D300001924FF03C004FF0E1011A4648F2104377
:102D4000FEF7F6FD07F16C034FF0830019461BF008
:102D5000E9FDFB6EDBB2002B21D107F1080241F245
:102D6000F023C0F6050314461D460FCD0FC495E8A9
:102D70000300206004F10404217007F108034FF000
:102D8000000200924FF0000201924FF050004FF00D
:102D90008C011A464CF21863FEF7CAFD20E007F1D9
:102DA000080241F20833C0F6050314461D460FCD54
:102DB0000FC495E80300206004F10404217007F1BA
:102DC00008034FF0000200924FF0000201924FF012
:102DD00050004FF08C011A464AF25553FEF7A8FDF9
:102DE00044F6B013C2F2000393F8543EDBB2002B5A
:102DF00012D007F1080241F22033C0F60503144651
:102E00001D460FCD0FC42B681A46228004F1020420
:102E10004FEA1343237011E007F1080241F2343303
:102E2000C0F6050314461D460FCD0FC42B681A4685
:102E3000228004F102044FEA1343237007F10803D0
:102E40004FF0000200924FF0000201924FF0580044
:102E50004FF0AA011A464CF21863FEF769FD41F6DD
:102E6000B843C2F20003B3F8B0309BB2082B21D0B4
:102E700041F6B843C2F20003B3F8B0309BB207F199
:102E80000802104641F24831C0F605011A4600F02A
:102E9000E7FB07F108034FF0000200924FF0000239
:102EA00001924FF03C004FF09B011A464CF2186320
:102EB000FEF73EFD4FF44063C4F202034FF00402FC
:102EC0001A834FF00003FB660FE04FF0000402E0AE
:102ED00000BF04F1010444F23F23C0F20F039C42FF
:102EE000F6D9FB6E03F10103FB66FA6E7B689A422A
:102EF000EBD307F17007BD46B0BD00BF80B483B00F
:102F000000AF0346FB7107F10C07BD4680BC70475C
:102F100080B483B000AF78600B46FB707B68FA78B2
:102F20001A704FF00103184607F10C07BD4680BC2C
:102F3000704700BF80B485B000AF786039604FF053
:102F40000003FB600FE03B681A787B681A707B68AF
:102F500003F101037B603B6803F101033B60FB6805
:102F600003F10103FB603B681B78002BEBD1FB688E
:102F7000184607F11407BD4680BC704780B586B07F
:102F800000AFF8607A603B600B46FB724FF00003C5
:102F90007B617B6803F1FF337B603B68092B25D99C
:102FA0003A684CF6CD43CCF6CC43A3FB02134FEA70
:102FB000D303FA7AF86811467A68FFF7DFFF786181
:102FC0007B69FA68D318FB6013E0FB7AF86819464E
:102FD000FFF79EFFFB6803F10103FB607B6903F1D0
:102FE00001037B617B6803F1FF337B607B68002B0F
:102FF000EBDC39684CF6CD43CCF6CC43A3FB012384
:103000004FEAD30213464FEA83039B184FEA430368
:10301000CA1AD3B203F13003DBB2F8681946FFF7DE
:1030200077FF03467A69D3187B617B69184607F1FD
:103030001807BD4680BD00BF80B586B000AFF86000
:103040007A603B600B46FB724FF000037B613B688C
:10305000002B04DA3B68C3F100033B6101E03B68ED
:103060003B617B6803F1FF337B603B69092B2AD905
:103070003B68002B12DA3A694CF6CD43CCF6CC43D0
:10308000A3FB02134FEAD303C3F10003FA7AF868F3
:1030900011467A68FFF7D0FF78610FE03A694CF685
:1030A000CD43CCF6CC43A3FB02134FEAD303FA7A09
:1030B000F86811467A68FFF7BFFF78617B69FA68A4
:1030C000D318FB602BE03B68002B15DA7B6803F11B
:1030D000FF337B6010E0FB7AF8681946FFF718FFB2
:1030E000FB6803F10103FB607B6903F101037B6172
:1030F0007B6803F1FF337B607B68002BEBDC3B6874
:10310000002B0CDAF8684FF02D01FFF701FF0346A2
:103110007A69D3187B61FB6803F10103FB603969AD
:103120004CF6CD43CCF6CC43A3FB01234FEAD302AC
:1031300013464FEA83039B184FEA4303CA1AD3B2DC
:1031400003F13003DBB2F8681946FFF7E1FE0346EE
:103150007A69D3187B617B69184607F11807BD4669
:1031600080BD00BF80B588B002AFF8607A600A46C3
:10317000FA72BB724FF000037B617B6803F1FF338F
:103180007B603B6A4FEA1313002B24D03B6A4FEA63
:103190001311FA7ABB7A0091F86811467A68FFF742
:1031A000E1FF03467A69D3187B617B69FA68D3181B
:1031B000FB6013E0FB7AF8681946FFF7A9FEFB688D
:1031C00003F10103FB607B6903F101037B617B6811
:1031D00003F1FF337B607B68002BEBDC3B6A03F081
:1031E0000F03092B0CD83B6ADBB203F00F03DBB2F1
:1031F00003F13003DBB2F8681946FFF789FE1BE0E4
:10320000BB7A002B0CD03B6ADBB203F00F03DBB2BE
:1032100003F13703DBB2F8681946FFF779FE0BE0DC
:103220003B6ADBB203F00F03DBB203F15703DBB2FF
:10323000F8681946FFF76CFE7B6903F101037B61B7
:103240007B69184607F11807BD4680BD80B58AB076
:1032500002AFF860B9607A603B604FF00003BB6179
:103260004FF000037B61FB68002B00F01C81FB68C2
:103270004FF000021A7016E17B681B78252B10D0E6
:103280007B681A78FB681A70FB6803F10103FB6026
:103290007B6803F101037B607B6903F101037B61C0
:1032A00002E17B6803F101031B78252B10D1FB6839
:1032B0004FF025021A70FB6803F10103FB607B6885
:1032C00003F102037B607B6903F101037B61EBE0A7
:1032D0004FF02003FB774FF00003BB777B6803F1CF
:1032E00001037B607B681B78302B1BD14FF03003D0
:1032F000FB777B6803F101037B6013E0BB7F1A4619
:103300004FEA8202D3184FEA4303DAB27B681B7894
:10331000D318DBB2A3F13003BB777B6803F1010361
:103320007B6000E000BF7B681B782F2B03D97B6894
:103330001B78392BE2D9BA7F7B69D3181A46BB6850
:103340009A4205D9BB68DAB27B69DBB2D31ABB7784
:103350007B681B78A3F15803202B00F2948001A214
:1033600052F823F039340108873401088734010802
:10337000873401088734010887340108873401083D
:10338000873401088734010887340108873401082D
:103390006F340108E93301088734010887340108D4
:1033A0008734010887340108E933010887340108AC
:1033B00087340108873401088734010887340108FD
:1033C00087340108873401088734010887340108ED
:1033D0005934010887340108013401088734010891
:1033E0008734010819340108BA7F3B6803F10401EE
:1033F00039601B68F97FF868FFF71EFEB86145E089
:10340000BA7F3B6803F1040139601B68F97FF868F3
:10341000FFF7B4FDB86139E0BA7F3B6803F10401FE
:1034200039601968FB7F0091F86819464FF0000376
:10343000FFF798FEB86129E0BA7F3B6803F1040109
:1034400039601968FB7F0091F86819464FF0010355
:10345000FFF788FEB86119E03B6803F104023A60A7
:103460001B68F8681946FFF765FDB8610EE03B6818
:1034700003F104023A601B68DBB2F8681946FFF7F3
:1034800047FDB86102E04FF0FF332CE07B6803F1A9
:1034900001037B60BB69FA68D318FB607A69BB697A
:1034A000D3187B6100E000BF7B681B78002B04D041
:1034B0007A69BB689A42FFF4DFAE7A69BB689A42C8
:1034C00004D2FB684FF000021A700BE0FB6803F1B6
:1034D000FF33FB60FB684FF000021A707B6903F159
:1034E000FF337B617B69184607F12007BD4680BD2D
:1034F0000CB480B584B000AF7860396007F11C036C
:10350000BB6078683968BA69BB68FFF79FFEF860EE
:10351000FB68184607F11007BD46BDE8804002B0C1
:10352000704700BF80B584B000AFF860B9607A60C2
:10353000F8684FF49671BA687B68FFF787FE034618
:10354000184607F11007BD4680BD00BFB0B5D8B022
:1035500000AF07F10C03186007F10803196007F1C9
:1035600004031A6007F1100241F26433C0F6050348
:1035700014461D460FCD0FC40FCD0FC42B6823601A
:1035800007F1340107F1080207F104030846116846
:103590001A68FFF7C7FF024640F22B139A420CDD70
:1035A00040F2A063C2F200031B68DB6807F110025F
:1035B0001046194600F0A6F8FEE707F1340207F1BD
:1035C0000C031046196800F09DF80346184607F5ED
:1035D000B077BD46B0BD00BF80B582B000AF7860A7
:1035E000396040F2A063C2F200031B689B68184672
:1035F00079683A68FFF7AAFF0346184607F10807FB
:10360000BD4680BD0EB480B585B000AF786007F1CF
:103610002003BB607868F969BA68FFF797FFF86024
:10362000FB68184607F11407BD46BDE8804003B0AB
:10363000704700BF0FB480B582B000AF07F114032C
:103640003B6038693968FFF7C7FF78607B681846C8
:1036500007F10807BD46BDE8804004B0704700BFD1
:103660000EB480B585B000AF786007F12003BB6071
:103670007868F969BA68FFF755FFF860FB68184683
:1036800007F11407BD46BDE8804003B0704700BF96
:1036900080B582B000AF786040F2A063C2F2000350
:1036A0001B689B687868194600F02CF8034618469A
:1036B00007F10807BD4680BD80B582B000AF7860D5
:1036C000396040F2A063C2F200031B689A683B684D
:1036D0009A4208D040F2A063C2F200031B68DA6885
:1036E0003B689A4206D17B68DBB21846FFF706FCBE
:1036F0007B6801E04FF0FF33184607F10807BD462D
:1037000080BD00BF80B584B000AF786039604FF0F5
:103710000003FB6014E07B681B7818463968FFF7EC
:10372000CBFF0346B3F1FF3F02D14FF0FF330CE074
:10373000FB6803F10103FB607B6803F101037B601D
:103740007B681B78002BE6D1FB68184607F1100751
:10375000BD4680BD80B500AF4FF480404FF0010101
:1037600000F0BCFD4FF480404FF0000100F0B6FDCA
:1037700080BD00BF80B483B000AF0346FB714FF43F
:103780006053C4F20103FA791A6007F10C07BD46D1
:1037900080BC704790B484B000AF02460B46FA710B
:1037A000BB714FF00003FB60BB7903F003034FEAEA
:1037B00083034FF00F0202FA03F3FB604FF46053F0
:1037C000C4F20103BA794FEA9202D2B210464FF422
:1037D0006052C4F20102B9794FEA9101C9B201F114
:1037E000020152F82110FA686FEA0202114000F15A
:1037F000020243F822104FF46053C4F20103BA7975
:103800004FEA9202D2B210464FF46052C4F2010263
:10381000B9794FEA9101C9B201F1020152F82110C0
:10382000FC79BA7902F003024FEA820204FA02F24A
:10383000114300F1020243F8221007F11007BD46C0
:1038400090BC704780B483B000AF78604FF0DC0369
:10385000C4F227237A681A6007F10C07BD4680BCC2
:10386000704700BF80B483B000AF0346FB714FF4D4
:103870008063C4F22723FA791A6007F10C07BD466A
:1038800080BC704780B483B000AF4FF00003FB7181
:103890004FF46053C4F201031B6A03F48073002BDE
:1038A00003D04FF00103FB7102E04FF00003FB7106
:1038B000FB79184607F10C07BD4680BC704700BF76
:1038C00080B400AF4FF46053C4F202034FF460526F
:1038D000C4F20202126842F001021A604FF460530F
:1038E000C4F202034FF000029A604FF46053C4F236
:1038F00002034FF46052C4F20202126822F0847292
:1039000022F480321A604FF46053C4F2020343F28F
:103910001002C2F200425A604FF46053C4F2020334
:103920004FF46052C4F20202126822F480221A603C
:103930004FF46053C4F202034FF00002DA60BD4658
:1039400080BC704780B483B000AF0346FB7143F680
:103950000203C4F202034FF000021A7043F602039E
:10396000C4F20203FA791A7007F10C07BD4680BC55
:10397000704700BF80B582B000AF4FF000033B60DE
:103980004FF00003FB714FF00003BB714FF03100AB
:1039900000F0D0FD0346BB713B6803F101033B60BF
:1039A0003B68B3F5A06F02D0BB79002BEED04FF08F
:1039B000310000F0BFFD0346002B03D04FF00103A0
:1039C000FB7102E04FF00003FB71FB79184607F131
:1039D0000807BD4680BD00BF80B485B000AF034678
:1039E000FB714FF00003FB604FF46053C4F202031D
:1039F0001B68FB60FB6823F0F803FB60FB794FEA70
:103A0000C303FA681343FB604FF46053C4F202032C
:103A1000FA681A6007F11407BD4680BC704700BF02
:103A200080B483B000AF0346FB714FF00003C4F2D3
:103A30004723FA791A6007F10C07BD4680BC70472E
:103A400080B483B000AF0346FB7143F67003C4F249
:103A500002034FF000021A7043F67003C4F202032F
:103A60004FF000021A70FB79012B02D0042B08D012
:103A70000FE043F67003C4F202034FF001021A7024
:103A800008E043F67003C4F202034FF005021A7017
:103A900000E000BF07F10C07BD4680BC704700BFC7
:103AA00080B483B000AF0346FB714FF46863C4F287
:103AB0004723FA791A6007F10C07BD4680BC7047AE
:103AC00080B485B000AFF860B9607A603B604FF4B5
:103AD0006053C4F202037A684FEA8211BA68114354
:103AE0003A684FEA520202F1FF324FEA02421143B2
:103AF000FA681143BA694FEA02620A435A6007F151
:103B00001407BD4680BC704780B483B000AF034645
:103B1000FB714FF06003C4F24723FA791A6007F192
:103B20000C07BD4680BC704780B483B000AF78609E
:103B300039604FF46053C4F202037A684FEA82118D
:103B40003A684FEA02720A43C3F8842007F10C076F
:103B5000BD4680BC704700BF80B483B000AF034651
:103B6000FB714FF06803C4F24723FA791A6007F13A
:103B70000C07BD4680BC704780B483B000AF0346DD
:103B8000FB714FF04C03C4F24723FA791A6007F136
:103B90000C07BD4680BC704780B485B000AF78602C
:103BA00039604FF00003FB604FF46053C4F202032E
:103BB0009B68FB60FB6823F0EC63FB607A683B6802
:103BC0001343FA681343FB604FF46053C4F20203DB
:103BD000FA689A6007F11407BD4680BC704700BFC1
:103BE00080B485B000AF786039604FF00003FB60AF
:103BF0004FF46053C4F202039B68FB60FB6823F040
:103C00007843FB607A683B681343FA681343FB60B0
:103C10004FF46053C4F20203FA689A6007F1140784
:103C2000BD4680BC704700BF80B485B000AF7860EF
:103C30004FF00003FB604FF46053C4F202039B6833
:103C4000FB60FB6823F00303FB60FA687B681343A7
:103C5000FB604FF46053C4F20203FA689A6007F104
:103C60001407BD4680BC704780B400AF4FF460536A
:103C7000C4F202039B68DBB203F00C03DBB218460C
:103C8000BD4680BC704700BF80B485B000AF78608F
:103C90004FF00003FB604FF46053C4F202039B68D3
:103CA000FB60FB6823F0F003FB60FA687B6813435A
:103CB000FB604FF46053C4F20203FA689A6007F1A4
:103CC0001407BD4680BC704780B485B000AF7860F3
:103CD0004FF00003FB604FF46053C4F202039B6893
:103CE000FB60FB6823F4E053FB60FA687B681343D6
:103CF000FB604FF46053C4F20203FA689A6007F164
:103D00001407BD4680BC704780B485B000AF7860B2
:103D10004FF00003FB604FF46053C4F202039B6852
:103D2000FB60FB6823F46043FB607B684FEAC303DE
:103D3000FA681343FB604FF46053C4F20203FA685D
:103D40009A6007F11407BD4680BC704780B489B003
:103D500000AF78604FF00003BB614FF000037B6160
:103D60004FF00003FB614FF002033B614FF0000393
:103D7000FB604FF00203BB604FF46053C4F20203D8
:103D80009B6803F00C03BB61BB69042B0AD0082BB2
:103D90000FD0002B60D17A684FF41053C0F2F403B7
:103DA000136060E07A684FF41053C0F2F4031360BC
:103DB00059E04FF46053C4F202035B6803F48003DC
:103DC0004FEA9353FB604FF46053C4F202035B6805
:103DD00003F03F03BB60FB68002B14D04FF410537B
:103DE000C0F2F403BA68B3FBF2F24FF46053C4F2CA
:103DF0000203596847F6C0730B404FEA931303FB65
:103E000002F3FB6113E04FF41053C0F2F403BA68FD
:103E1000B3FBF2F24FF46053C4F20203596847F661
:103E2000C0730B404FEA931303FB02F3FB614FF4A3
:103E30006053C4F202035B6803F440334FEA134358
:103E400003F101034FEA43033B61FA693B69B2FBAB
:103E5000F3F27B681A6006E07A684FF41053C0F200
:103E6000F403136000BF4FF46053C4F202039B6875
:103E700003F0F003BB61BB694FEA1313BB6141F26E
:103E80008833C0F60503BA699B181B787B617B6891
:103E90001A687B6922FA03F27B685A604FF4605318
:103EA000C4F202039B6803F4E053BB61BB694FEAB1
:103EB0009323BB6141F28833C0F60503BA699B18AE
:103EC0001B787B617B685A687B6922FA03F27B6806
:103ED0009A604FF46053C4F202039B6803F460439A
:103EE000BB61BB694FEA5333BB6141F28833C0F613
:103EF0000503BA699B181B787B617B685A687B69EC
:103F000022FA03F27B68DA6007F12407BD4680BC21
:103F1000704700BF80B485B000AF78604FF00003F9
:103F2000FB607B6803F44073B3F5407F17D14FF417
:103F30006053C4F202039B68FB60FB6823F4F81330
:103F4000FB607B6823F0704323F44073FA681343EB
:103F5000FB604FF46053C4F20203FA689A604FF4B6
:103F60006053C4F202034FF46052C4F20202116FB4
:103F70007A684FEA02524FEA12520A431A6707F16F
:103F80001407BD4680BC704780B483B000AF0346C1
:103F9000FB7140F63C63C4F24723FA791A6007F1DB
:103FA0000C07BD4680BC704780B483B000AF0346A9
:103FB000FB714FF46463C4F24723FA791A6007F186
:103FC0000C07BD4680BC704780B483B000AF7860FA
:103FD0004FF4AE73C4F247237A681A6007F10C07F6
:103FE000BD4680BC704700BF80B483B000AF78602E
:103FF0000B46FB70FB78002B0CD04FF46053C4F2DF
:1040000002034FF46052C4F20202116B7A680A4351
:104010001A630DE04FF46053C4F202034FF4605290
:10402000C4F20202116B7A686FEA02020A401A6354
:1040300007F10C07BD4680BC704700BF80B483B059
:1040400000AF78600B46FB70FB78002B0CD04FF470
:104050006053C4F202034FF46052C4F20202516B87
:104060007A680A435A630DE04FF46053C4F20203C6
:104070004FF46052C4F20202516B7A686FEA020296
:104080000A405A6307F10C07BD4680BC704700BF69
:1040900080B483B000AF78600B46FB70FB78002BD8
:1040A0000CD04FF46053C4F202034FF46052C4F2D8
:1040B0000202916B7A680A439A630DE04FF46053F1
:1040C000C4F202034FF46052C4F20202916B7A68A8
:1040D0006FEA02020A409A6307F10C07BD4680BCF2
:1040E000704700BF80B483B000AF78600B46FB70B0
:1040F000FB78002B0CD04FF46053C4F202034FF452
:104100006052C4F20202116C7A680A431A640DE02C
:104110004FF46053C4F202034FF46052C4F202023F
:10412000116C7A686FEA02020A401A6407F10C0700
:10413000BD4680BC704700BF80B483B000AF7860DC
:104140000B46FB70FB78002B0CD04FF46053C4F28D
:1041500002034FF46052C4F20202516C7A680A43BF
:104160005A640DE04FF46053C4F202034FF46052FE
:10417000C4F20202516C7A686FEA02020A405A6481
:1041800007F10C07BD4680BC704700BF80B483B008
:1041900000AF78600B46FB70FB78002B0CD04FF41F
:1041A0006053C4F202034FF46052C4F20202116978
:1041B0007A680A431A610DE04FF46053C4F20203B7
:1041C0004FF46052C4F2020211697A686FEA020287
:1041D0000A401A6107F10C07BD4680BC704700BF5A
:1041E00080B483B000AF78600B46FB70FB78002B87
:1041F0000CD04FF46053C4F202034FF46052C4F287
:10420000020251697A680A435A610DE04FF4605323
:10421000C4F202034FF46052C4F2020251697A6898
:104220006FEA02020A405A6107F10C07BD4680BCE2
:10423000704700BF80B483B000AF78600B46FB705E
:10424000FB78002B0CD04FF46053C4F202034FF400
:104250006052C4F2020291697A680A439A610DE0E1
:104260004FF46053C4F202034FF46052C4F20202EE
:1042700091697A686FEA02020A409A6107F10C07B5
:10428000BD4680BC704700BF80B483B000AF78608B
:104290000B46FB70FB78002B0CD04FF46053C4F23C
:1042A00002034FF46052C4F20202116A7A680A43B0
:1042B0001A620DE04FF46053C4F202034FF46052EF
:1042C000C4F20202116A7A686FEA02020A401A62B4
:1042D00007F10C07BD4680BC704700BF80B483B0B7
:1042E00000AF78600B46FB70FB78002B0CD04FF4CE
:1042F0006053C4F202034FF46052C4F20202516AE6
:104300007A680A435A620DE04FF46053C4F2020324
:104310004FF46052C4F20202516A7A686FEA0202F4
:104320000A405A6207F10C07BD4680BC704700BFC7
:1043300080B483B000AF78600B46FB70FB78002B35
:104340000CD04FF46053C4F202034FF46052C4F235
:104350000202116D7A680A431A650DE04FF460534A
:10436000C4F202034FF46052C4F20202116D7A6883
:104370006FEA02020A401A6507F10C07BD4680BCCD
:10438000704700BF80B483B000AF78600B46FB700D
:10439000FB78002B0CD04FF46053C4F202034FF4AF
:1043A0006052C4F20202516D7A680A435A650DE008
:1043B0004FF46053C4F202034FF46052C4F202029D
:1043C000516D7A686FEA02020A405A6507F10C07DC
:1043D000BD4680BC704700BF80B483B000AF78603A
:1043E0000B46FB70FB78002B0CD04FF46053C4F2EB
:1043F00002034FF46052C4F20202916D7A680A43DC
:104400009A650DE04FF46053C4F202034FF460521A
:10441000C4F20202916D7A686FEA02020A409A655C
:1044200007F10C07BD4680BC704700BF80B483B065
:1044300000AF78600B46FB70FB78002B0CD04FF47C
:104440006053C4F202034FF46052C4F20202116ED0
:104450007A680A431A660DE04FF46053C4F202030F
:104460004FF46052C4F20202116E7A686FEA0202DF
:104470000A401A6607F10C07BD4680BC704700BFB2
:1044800080B483B000AF78600B46FB70FB78002BE4
:104490000CD04FF46053C4F202034FF46052C4F2E4
:1044A0000202516E7A680A435A660DE04FF4605377
:1044B000C4F202034FF46052C4F20202516E7A68F1
:1044C0006FEA02020A405A6607F10C07BD4680BC3B
:1044D000704700BF80B483B000AF02460B46FA714C
:1044E000BB71BB79002B0ED043F60D03C4F202035F
:1044F00043F60D02C4F202021278D1B2FA790A43ED
:10450000D2B21A7010E043F60D03C4F2020343F670
:104510000D02C4F202021278D1B2FA796FEA0202F5
:10452000D2B20A40D2B21A7007F10C07BD4680BC65
:10453000704700BF80B487B000AF0346FB714FF0F7
:104540000003FB604FF000037B614FF00003FB743E
:10455000FB794FEA5313DBB2FB60FB68012B06D1FA
:104560004FF46053C4F202031B687B610FE0FB68E9
:10457000022B06D14FF46053C4F202031B6F7B6120
:1045800005E04FF46053C4F202035B6F7B61FB797B
:1045900003F01F03FB60FB687A6922FA03F303F060
:1045A0000103002B03D04FF00103FB7402E04FF036
:1045B0000003FB74FB7C184607F11C07BD4680BC5A
:1045C000704700BF80B400AF4FF46053C4F20203E1
:1045D0004FF46052C4F20202526F42F080725A6786
:1045E000BD4680BC704700BF80B485B000AF0346B5
:1045F000FB714FF00003FB734FF46053C4F20203EE
:10460000DA68FB791340002B03D04FF00103FB73F2
:1046100002E04FF00003FB73FB7B184607F1140721
:10462000BD4680BC704700BF80B483B000AF034676
:10463000FB7143F60E03C4F20203FA791A7007F114
:104640000C07BD4680BC704780B586B000AF4FF008
:1046500002033B724FF000037B724FF00103FB72C9
:104660004FF040037B6007F104034FF40060C4F295
:104670000200194600F058FF4FF080037B6007F1FD
:1046800004034FF40060C4F20200194600F04CFF2E
:104690004FF40060C4F202004FF006014FF0030235
:1046A00001F0D0F84FF40060C4F202004FF00701AF
:1046B0004FF0030201F0C6F84FF002004FF0010185
:1046C000FFF73AFD41F207033B614FF00003BB8166
:1046D0004FF00003BB824FF00003FB814FF480607A
:1046E000C4F201004FF003014FF002024FF0020349
:1046F00030F0ECFC07F10C034FF48060C4F20100D1
:1047000019462FF0E5F84FF48060C4F201004FF035
:1047100001012FF073FA07F11807BD4680BD00BFF5
:1047200080B586B000AF4FF002033B724FF000033C
:104730007B724FF00103FB724FF010037B6007F1B7
:1047400004034FF48060C4F20200194600F0ECFE4E
:104750004FF020037B6007F104034FF48060C4F244
:104760000200194600F0E0FE4FF48060C4F202003F
:104770004FF004014FF0020201F064F84FF4806042
:10478000C4F202004FF005014FF0020201F05AF8A6
:104790004FF002004FF00101FFF7A4FC41F20703C4
:1047A0003B614FF00003BB814FF00003BB824FF031
:1047B0000003FB814FF48060C4F200004FF003015E
:1047C0004FF002024FF0020330F080FC07F10C03BF
:1047D0004FF48060C4F2000019462FF079F84FF4CE
:1047E0008060C4F200004FF001012FF007FA07F1DA
:1047F0001807BD4680BD00BF80B586B000AF4FF042
:1048000002033B724FF000037B724FF00103FB7217
:104810004FF480537B6007F104034FF44060C4F20F
:104820000200194600F080FE4FF400537B6007F150
:1048300004034FF44060C4F20200194600F074FE15
:104840004FF44060C4F202004FF00C014FF002023E
:1048500000F0F8FF4FF44060C4F202004FF00D0189
:104860004FF0020200F0EEFF4FF004004FF00101A4
:10487000FFF738FC41F207033B614FF00003BB81B7
:104880004FF00003BB824FF00003FB814FF4006048
:10489000C4F200004FF003014FF002024FF0020398
:1048A00030F014FC07F10C034FF40060C4F2000078
:1048B00019462FF00DF84FF40060C4F200004FF0DD
:1048C00001012FF09BF907F11807BD4680BD00BF1D
:1048D00080B586B000AF4FF002033B724FF000038B
:1048E0007B724FF00103FB724FF001037B6007F115
:1048F00004034FF00000C4F20200194600F014FE59
:104900004FF002037B6007F104034FF00000C4F294
:104910000200194600F008FE4FF00000C4F2020049
:104920004FF000014FF0020200F08CFF4FF000004A
:10493000C4F202004FF001014FF0020200F082FFCA
:104940004FF008004FF00101FFF7CCFB41F20703E5
:104950003B614FF00003BB814FF00003BB824FF07F
:104960000003FB814FF44060C4F200004FF00301EC
:104970004FF002024FF0020330F0A8FB07F10C03E6
:104980004FF44060C4F2000019462EF0A1FF4FF42E
:104990004060C4F200004FF001012FF02FF907F141
:1049A0001807BD4680BD00BF80B400AFBFF34F8F76
:1049B0004FF46D42CEF200024FF46D43CEF200038D
:1049C000DB6803F4E0614FF00403C0F2FA530B43D9
:1049D000D360BFF34F8FFEE780B582B000AF786041
:1049E000FFF7E2FF07F10807BD4680BD80B500AFC5
:1049F00041F29850C0F60500FEF71CFE4FF0010092
:104A0000FFF7EAFF80BD00BF80B500AF41F2B050B4
:104A1000C0F60500FEF70EFE4FF00200FFF7DCFFC8
:104A200080BD00BF80B500AF41F2CC50C0F605009C
:104A3000FEF700FE4FF00300FFF7CEFF80BD00BF82
:104A400080B500AF41F2E850C0F60500FEF7F2FD78
:104A50004FF00400FFF7C0FF80BD00BF80B500AF7E
:104A600041F20460C0F60500FEF7E4FD4FF00500DA
:104A7000FFF7B2FF80BD00BF80B500AF41F22060FC
:104A8000C0F60500FEF7D6FD4FF00600FFF7A4FFC5
:104A900080BD00BF80B500AF41F23860C0F60500B0
:104AA000FEF7C8FD4FF00700FFF796FF80BD00BF7F
:104AB00080B400AFBD4680BC704700BF80B500AF7A
:104AC0004FF0010019F0A2F80346002B44D041F644
:104AD000B843C2F2000393F87A30DBB2022B0DD157
:104AE0004FF48050C4F202004FF0010100F0FEFDCF
:104AF0000346002B30D11AF089FF2DE041F6B84370
:104B0000C2F2000393F87A30DBB2002B11D041F6E9
:104B1000B843C2F2000393F87A30DBB2012B08D01D
:104B200041F6B843C2F2000393F87A30DBB2032BAC
:104B300012D14FF48050C4F202004FF0010100F096
:104B4000D5FD0346002B07D141F6B843C2F200035E
:104B50004FF0010283F879204FF0010019F082F83C
:104B600080BD00BF80B500AF4FF0020019F04EF8D5
:104B70000346002B15D041F6B843C2F2000393F868
:104B80007A30DBB2022B0CD14FF48050C4F2020019
:104B90004FF0020100F0AAFD0346002B01D11AF0EC
:104BA0008BFF4FF0020019F05DF880BD80B500AFBB
:104BB0004FF4005019F02AF84FF4005019F052F851
:104BC00080BD00BF80B400AF41F6B843C2F200031D
:104BD0004FF0000283F8782041F6B843C2F2000398
:104BE0004BF680321A6041F6B843C2F200034FF030
:104BF000000283F87B2041F6B843C2F200034FF075
:104C0000000283F87C2041F6B843C2F200034FF063
:104C1000000283F87D2041F6B843C2F200034FF052
:104C2000040283F8702041F6B843C2F200034FF04B
:104C300000025A6741F6B843C2F200034FF0000287
:104C400083F87A2041F6B843C2F200034FF0100215
:104C50009A7141F6B843C2F200034FF010029A7104
:104C600041F6B843C2F200034FF07E529A6041F61B
:104C7000B843C2F200034FF032021A6141F6B84362
:104C8000C2F200034FF0030283F88B2041F6B843D1
:104C9000C2F200034FF009021A7541F6B843C2F29E
:104CA00000034FF000029A8041F6B843C2F20003BD
:104CB0004FF0010283F8892041F6B843C2F20003A5
:104CC0004FF00C0283F88A2041F6B843C2F2000389
:104CD0004FF0030283F87F2041F6B843C2F200038D
:104CE0004FF0060283F8802041F6B843C2F2000379
:104CF0004FF0030283F8812041F6B843C2F200036B
:104D00004FF0030283F8822041F6B843C2F2000359
:104D10004FF0020283F8832041F6B843C2F2000349
:104D20004FF0010283F8842041F6B843C2F2000339
:104D30004FF0010283F8852041F6B843C2F2000328
:104D40004FF005029A7541F6B843C2F200034FF0E6
:104D5000000283F8902041F6B843C2F200034FF0FE
:104D6000140283F8912041F6B843C2F2000340F2E6
:104D7000EE22C3F8942041F6B843C2F200034FF08C
:104D8000000283F8982041F6B843C2F200034FF0C6
:104D9000080283F8992041F6B843C2F200034FF4A9
:104DA000E172C3F89C2041F6B843C2F200034FF011
:104DB00000025A7541F6B843C2F200034FF00002F8
:104DC0001A6241F6B843C2F200034FF000025A6281
:104DD00041F6B843C2F200034FF000021A6241F6F6
:104DE000B843C2F200034FF000025A6241F6B843E2
:104DF000C2F200034FF000029A6341F6B843C2F2D8
:104E000000034FF00002DA6341F6B843C2F2000338
:104E10004FF000025A6441F6B843C2F200034FF06B
:104E200000029A6441F6B843C2F200034FF0000258
:104E3000DA6541F6B843C2F200034FF000021A6689
:104E400041F6B843C2F200034FF0000283F8642039
:104E500041F6B843C2F200034FF0000283F8652028
:104E600041F6B843C2F200034FF0000283F8662017
:104E700041F6B843C2F200034FF000029A6641F6D1
:104E8000B843C2F200034FF00002DA6641F6B843BD
:104E9000C2F200034FF000025A7641F6B843C2F264
:104EA00000034FF00002DA6141F6B843C2F200039A
:104EB0004FF0000283F8A12041F6B843C2F200038C
:104EC0004FF00F0283F8A22041F6B843C2F200036C
:104ED00093F8A230DBB21A4641F6B843C2F200039F
:104EE000C3F8A42041F6B843C2F200034FF0000219
:104EF00083F8AE2041F6B843C2F200034FF00C0233
:104F000083F8AC2041F6B843C2F200034FF0000230
:104F100083F8AF2041F6B843C2F200034FF07C5251
:104F20005A6541F6B843C2F200034FF00002DA7549
:104F300041F6B843C2F200034FF000021A7641F680
:104F4000B843C2F200034FF000029A6541F6B8433D
:104F5000C2F200034FF0020283F8A02041F6B843EA
:104F6000C2F200034FF0000283F8B22041F6B843CA
:104F7000C2F200034FF0010283F8B32041F6B843B8
:104F8000C2F200034FF0040283F8B42041F6B843A4
:104F9000C2F200034FF0000283F8B52041F6B84397
:104FA000C2F200034FF0010283F8B62041F6B84385
:104FB000C2F2000344F20822C3F8B82041F6B84315
:104FC000C2F200034FF0010283F8BC2041F6B8435F
:104FD000C2F200034FF00A0283F8BD2041F6B84345
:104FE000C2F200034FF00A0283F8BE2041F6B84334
:104FF000C2F200034FF0000283F8662041F6B84386
:10500000C2F200034FF00002C3F8C02041F6B843DB
:10501000C2F200034FF00002C3F8C42041F6B843C7
:10502000C2F200034FF0000283F8C82041F6B843F3
:10503000C2F200034FF00002C3F8CC2041F6B8439F
:10504000C2F200034FF00102C3F8D02041F6B8438A
:10505000C2F200034FF0010283F8D42041F6B843B6
:10506000C2F200034FF0010283F8D52041F6B843A5
:10507000C2F200034FF0010283F8D62041F6B84394
:10508000C2F200034FF0010283F8D72041F6B84383
:10509000C2F200034FF0010283F8D82041F6B84372
:1050A000C2F200034FF0010283F8D92041F6B84361
:1050B000C2F200034FF0010283F8DA2041F6B84350
:1050C000C2F200034FF0010283F8DB2041F6B8433F
:1050D000C2F200034FF0010283F8DC2041F6B8432E
:1050E000C2F200034FF0000283F8862041F6B84375
:1050F000C2F200034FF0000283F8872041F6B84364
:10510000C2F200034FF0000283F8882041F6B84352
:10511000C2F200034FF0000283F87E2041F6B8434C
:10512000C2F200034FF00A0283F8E62041F6B843CA
:10513000C2F200034FF0010283F8E72041F6B843C2
:10514000C2F200034FF0000283F8AD2041F6B843ED
:10515000C2F200034FF0000283F8E82041F6B843A2
:10516000C2F200034FF00002C3F8EC2041F6B8434E
:10517000C2F200034FF0000283F8F02041F6B8437A
:10518000C2F200034FF0FF0283F8F12041F6B8436A
:10519000C2F200034FF0C002C3F8F42041F6B84356
:1051A000C2F200034FF0000283F8F22041F6B84348
:1051B000C2F200034FF0C002C3F8FC2041F6B8432E
:1051C000C2F200034FF00102C3F8002141F6B843D8
:1051D000C2F200034FF00002C3F8042141F6B843C5
:1051E000C2F200034FF00002C3F8082141F6B843B1
:1051F000C2F200034FF00002C3F80C2141F6B8439D
:10520000C2F200034FF0000283F8102141F6B843C8
:10521000C2F200034FF0000283F8112141F6B843B7
:10522000C2F200034FF00002C3F8182141F6B84360
:10523000C2F200034FF0000283F81C2141F6B8438C
:10524000C2F200034FF0000283F81D2141F6B8437B
:10525000C2F200034FF00002C3F8202141F6B84328
:10526000C2F200034FF0000283F8242141F6B84354
:10527000C2F200034FF0000283F8252141F6B84343
:10528000C2F200034FF0000283F8262141F6B84332
:10529000C2F200034FF00002C3F8282141F6B843E0
:1052A000C2F200034FF0000283F82C2141F6B8430C
:1052B000C2F200034FF0000283F82D21BD4680BCEE
:1052C000704700BF80B500AF41F6B843C2F200039B
:1052D0001B689FED040A18464FF00001FBF75AFBCC
:1052E00080BD00BF0000000080B500AF40F26873D1
:1052F000C2F200031B78002B12D14FF07F001EF08A
:10530000FFF840F26873C2F200034FF001021A7016
:1053100040F26473C2F200034FF000021A6011E021
:1053200040F26473C2F200031B68282B0AD940F2D2
:105330006473C2F200034FF000021A604FF07F0066
:105340001EF0CCF880BD00BF80B500AF19F09AFA0E
:105350004FF0010019F0A6F8FFF734FC2DF040F9EA
:1053600003461A4641F6B843C2F20003A3F8B02040
:105370004FF06400FDF718FCFFF7A4FF13F068FD81
:1053800014F0D4F914F032FB00F0D8FA08F0C6FBA0
:1053900000F0D4FA41F6B843C2F200034FF06302C2
:1053A0005A734FF0000030F00BFA08F063FCFCE792
:1053B00080B582B000AF78607A684FF00003C4F225
:1053C00002039A420CD14FF001004FF00101FEF7A9
:1053D000DDFE4FF001004FF00001FEF7D7FE9EE02A
:1053E0007A684FF48063C4F202039A420CD14FF002
:1053F00002004FF00101FEF7C9FE4FF002004FF02E
:105400000001FEF7C3FE8AE07A684FF40063C4F23D
:1054100002039A420CD14FF004004FF00101FEF755
:10542000B5FE4FF004004FF00001FEF7AFFE76E04E
:105430007A684FF44063C4F202039A420CD14FF0F1
:1054400008004FF00101FEF7A1FE4FF008004FF0F9
:105450000001FEF79BFE62E07A684FF48053C4F2CD
:1054600002039A420CD14FF010004FF00101FEF7F9
:105470008DFE4FF010004FF00001FEF787FE4EE06A
:105480007A684FF4A053C4F202039A420CD14FF051
:1054900020004FF00101FEF779FE4FF020004FF0A1
:1054A0000001FEF773FE3AE07A684FF4C053C4F28D
:1054B00002039A420CD14FF040004FF00101FEF779
:1054C00065FE4FF040004FF00001FEF75FFE26E062
:1054D0007A684FF4E053C4F202039A420CD14FF0C1
:1054E00080004FF00101FEF751FE4FF080004FF0B9
:1054F0000001FEF74BFE12E07A684FF40053C4F24D
:1055000002039A420BD14FF480704FF00101FEF775
:105510003DFE4FF480704FF00001FEF737FE07F1BB
:105520000807BD4680BD00BF80B487B000AF78607B
:1055300039604FF000037B614FF000033B614FF097
:105540000003FB604FF000037B6186E07B694FF056
:10555000010202FA03F33B613B681A683B6913409E
:10556000FB60FA683B699A4273D17B681A687B6971
:105570004FEA43034FF0030101FA03F36FEA030319
:105580001A407B681A607B681A683B681B79194669
:105590007B694FEA430301FA03F31A437B681A60FD
:1055A0003B681B79012B03D03B681B79022B34D15C
:1055B0007B689A687B694FEA43034FF0030101FA65
:1055C00003F36FEA03031A407B689A607B689A686A
:1055D0003B685B7919467B694FEA430301FA03F3A1
:1055E0001A437B689A607B685A687B699BB24FF06C
:1055F000010101FA03F36FEA03031A407B685A6062
:105600007B685A683B689B7919467B699BB201FAB3
:1056100003F39BB21A437B685A607B68DA687B6944
:105620009BB24FEA43034FF0030101FA03F36FEA21
:1056300003031A407B68DA607B68DA683B68DB79D1
:1056400019467B694FEA430301FA03F31A437B6867
:10565000DA607B6903F101037B617B690F2B7FF6C5
:1056600075AF07F11C07BD4680BC704780B483B09E
:1056700000AF78607B684FF6FF721A607B684FF06E
:1056800000021A717B684FF000025A717B684FF07C
:1056900000029A717B684FF00002DA7107F10C0783
:1056A000BD4680BC704700BF80B485B000AF786055
:1056B0000B467B804FF48033FB607A88FB68134392
:1056C000FB60FA687B68DA617A887B68DA61FA687D
:1056D0007B68DA617B68DB69FB607B68DB69FB60A8
:1056E00007F11407BD4680BC704700BF80B485B089
:1056F00000AF78600B467B804FF00003FB737B6844
:105700001A697B881340002B03D04FF00103FB7311
:1057100002E04FF00003FB73FB7B184607F1140710
:10572000BD4680BC704700BF80B483B000AF7860D6
:105730007B681B699BB2184607F10C07BD4680BC0D
:10574000704700BF80B485B000AF78600B467B80A7
:105750004FF00003FB737B685A697B881340002B72
:1057600003D04FF00103FB7302E04FF00003FB7323
:10577000FB7B184607F11407BD4680BC704700BF8D
:1057800080B483B000AF78607B685B699BB21846D9
:1057900007F10C07BD4680BC704700BF80B483B0E2
:1057A00000AF78600B467B807B687A881A8307F1AC
:1057B0000C07BD4680BC704780B483B000AF7860F2
:1057C0000B467B807B687A885A8307F10C07BD46BD
:1057D00080BC704780B483B000AF786013460A463F
:1057E0007A807B707B78002B03D07B687A881A8361
:1057F00002E07B687A885A8307F10C07BD4680BCBB
:10580000704700BF80B483B000AF78600B467B80E8
:105810007A887B685A6107F10C07BD4680BC7047E7
:1058200080B483B000AF78600B467B807B685A6998
:105830007B885A407B685A6107F10C07BD4680BCE3
:10584000704700BF80B485B000AF786013460A4649
:105850007A807B704FF00003FB604FF00003BB6069
:105860007A787B8803F007034FEA830302FA03F395
:10587000FB607B884FEAD3039BB21A467B884FEAD2
:10588000D3039BB219467B6801F1080153F821103C
:105890007B8803F007034FEA83034FF00F0000FA01
:1058A00003F36FEA030319407B6802F1080243F82F
:1058B00022107B884FEAD3039BB21A467B6802F121
:1058C000080253F82220FB681343BB607B884FEA31
:1058D000D3039BB21A467B6802F10802B96843F809
:1058E000221007F11407BD4680BC7047000000007D
:1058F00080B582B000AF87ED010A3860D7ED017A3C
:10590000F5EEC07AF1EE10FA0BDD97ED010A34F0F6
:1059100011FDF0EE407A3B68C3ED007A4FF00003D2
:1059200005E03B684FF000021A604FF0FF035BB2E6
:10593000184607F10807BD4680BD00BF90B583B08B
:1059400000AF4FF000037B6019F0FEFB46F2C0731E
:10595000C2F200034FF0010283F8202845F6447399
:10596000C2F200034FF000021A6045F64473C2F21F
:1059700000034FF000025A6045F64473C2F2000380
:105980004FF00002DA6045F64473C2F200034FF0B4
:1059900000029A6046F2C073C2F2000303F62403C9
:1059A0004FF07E521A6046F2C073C2F2000303F653
:1059B00058234FF07E521A6046F2C073C2F20003C1
:1059C0004FF0040283F8642A41F6B843C2F20003A0
:1059D00093F88930DBB2002B0BD146F2C073C2F2D0
:1059E000000303F62C234CF2AC52C3F227721A6068
:1059F0008EE041F6B843C2F2000393F88930DBB27F
:105A0000022B0BD146F2C073C2F2000303F62C2323
:105A10004BF21772C3F651121A6079E041F6B8439F
:105A2000C2F2000393F88930DBB2032B65D141F653
:105A3000B843C2F2000393F88A30DBB207EE103AA3
:105A4000F8EE477A46F2C073C2F2000303F62C2345
:105A5000C3ED007A46F2C073C2F2000303F62C23B2
:105A600093ED007AF3EE0E7A77EE277A46F2C07362
:105A7000C2F2000303F62C23C3ED007A46F2C07392
:105A8000C2F2000303F62C2393ED007AF2EE047ABF
:105A9000C7EE277A46F2C073C2F2000303F62C2346
:105AA000C3ED007A46F2C073C2F2000303F62C2362
:105AB000D3ED007AF1EE677A46F2C073C2F20003CA
:105AC00003F62C23C3ED007A46F2C073C2F2000342
:105AD00003F62C23D3ED007AB2EE040AF0EE670A47
